:100000000C9434000C9451000C9451000C94510049
:100010000C9451000C9451000C9451000C9451001C
:100020000C9451000C9451000C9451000C9451000C
:100030000C9451000C9451000C9459020C945100F2
:100040000C9451000C9451000C9451000C945100EC
:100050000C9451000C9451000C9451000C945100DC
:100060000C9451000C94510011241FBECFEFD8E026
:10007000DEBFCDBF11E0A0E0B1E0EAEEF5E002C0E6
:1000800005900D92AC31B107D9F721E0ACE1B1E0B8
:1000900001C01D92A533B207E1F70E9490020C94B3
:1000A000F3020C94000080E480937C0087E8809346
:1000B0007A00089590917C00987F8770982B909398
:1000C0007C0080917A00806480937A0080917A002D
:1000D00086FDFCCF8091780090917900089584B1DD
:1000E0008C6384B9209A8AB1806C8AB98AB1837E84
:1000F0008AB9559821988BB18C638BB9299A389815
:1001000085B1837C85B928988BB18F738BB908959D
:1001100028988BB18F738BB908950E9488008091C5
:100120002501909126018330910581F030F48130D2
:10013000910531F0029731F00895049729F0089560
:100140005F9A0895289A08955F9A289A5E9A08956A
:10015000EF92FF920F931F930E9485022091270137
:10016000309128014091290150912A017B018C0195
:10017000E21AF30A040B150B9701A8012A3F310577
:100180004105510578F020912B0160932701709370
:1001900028018093290190932A0191E0822F8927D9
:1001A00080932B0180912B01811106C01F910F912B
:1001B000FF90EF900C9488001F910F91FF90EF90AB
:1001C0000C948D0080E00E945A009C01AFEFB0E0DB
:1001D0000E94AE022FEF33E040E050E00E94D102D7
:1001E000AAE0B0E00E94AE0266507F4F8F4F9F4F53
:1001F00008950F931F93CF93DF93EC01E981FA8168
:1002000000818881082311E0011101C010E00E94E3
:1002100085022C81211739F06D837E838F83988727
:100220001C8380E014C02D813E814F815885621B64
:10023000730B840B950B693271058105910588F369
:100240008B81811771F31B8381E00111EACFDF916C
:10025000CF911F910F91089521E030E0A90101C0D5
:10026000440F8A95EAF7842F95B1611519F0892B0F
:1002700085B9089580958923FBCF8F929F92AF9285
:10028000BF92CF92DF92EF92FF920E9485026B01A4
:100290007C010E94E20020912C0130912D014091BF
:1002A0002E0150912F0146015701821A930AA40A88
:1002B000B50A9401A501261737074807590770F0BA
:1002C000C0922C01D0922D01E0922E01F0922F01CC
:1002D0008091300191E08927809330018091200145
:1002E00060911C01811102C06091300182E00E9486
:1002F0002C018091210160911D01811102C060914A
:10030000300183E00E942C018091220160911E0146
:10031000811102C06091300184E00E942C01809123
:10032000230160911F01811102C06091300185E0BD
:10033000FF90EF90DF90CF90BF90AF909F908F9005
:100340000C942C018091240181111BC089B182FB86
:10035000222720F990911B01291789F082FD0FC0F7
:1003600080912501909126014B9B0CC0019665E080
:1003700070E00E94BD028093250190932601209396
:100380001B010895009719F484E090E0F4CF0197E1
:10039000F2CF82E191E00E94F9008115F1F08091A5
:1003A000250190912601892B21F4109224010C94AF
:1003B00088008091240191E0892780932401811590
:1003C00061F00E9485026093270170932801809359
:1003D000290190932A0110922B0108958091250103
:1003E0009091260183309105E1F030F48130910540
:1003F00031F0029769F008950497E1F0089591E0D3
:100400009093230180911F01892780931F010895F4
:1004100091E09093220180911E01892780931E0113
:10042000089591E09093210180911D018927809387
:100430001D01089591E09093200180911C0189276E
:1004400080931C01089580912501909126018330AD
:10045000910581F030F48130910531F0029739F047
:100460000895049751F00895109223010895109271
:1004700022010895109221010895109220010895FB
:10048000809124018115A1F0809125019091260190
:10049000892B71F089E091E00E94F90081110E949E
:1004A000EE0180E091E00E94F90081110C9423029A
:1004B00008951F921FB61F9211248F939F93AF939D
:1004C000BF938091310190913201A0913301B0919D
:1004D00034010196A11DB11D809331019093320129
:1004E000A0933301B0933401BF91AF919F918F914D
:1004F0001F901FBE1F90189582E084BD93E095BDAC
:1005000099EF97BD80936E000895F8946091310142
:100510007091320180913301909134017894089563
:100520000E946F000E9453000E947C0288274A9913
:10053000839580931B0178940E943D010E94A20143
:100540000E94C9010E94400280912401811103C0D0
:100550000E948D00F1CF0E94A800EECFA29FB001B3
:10056000B39FC001A39F700D811D1124911DB29FE7
:10057000700D811D1124911D0895AA1BBB1B51E113
:1005800007C0AA1FBB1FA617B70710F0A61BB70B03
:10059000881F991F5A95A9F780959095BC01CD01A8
:1005A0000895A1E21A2EAA1BBB1BFD010DC0AA1FB4
:1005B000BB1FEE1FFF1FA217B307E407F50720F0CC
:1005C000A21BB30BE40BF50B661F771F881F991F47
:1005D0001A9469F760957095809590959B01AC0190
:0A05E000BD01CF010895F894FFCF8C
:1005EA00202900010100000000022300010100008F
:0C05FA00000010290001010000000001B9
:00000001FF
